:10000000000C0020E9040000F9040000F9040000DD
:1000100000000000000000000000000000000000E0
:10002000000000000000000000000000F9040000D3
:100030000000000000000000F9040000E15800008A
:10004000F9040000F9040000F9040000F9040000BC
:10005000F9040000F9040000F9040000F9040000AC
:10006000390E0000290E0000F9040000F904000018
:10007000F9040000F9040000F9040000F90400008C
:10008000F9040000F9040000F9040000F90400007C
:10009000F9040000F9040000F9040000F90400006C
:1000A000F9040000F9040000F9040000F90400005C
:1000B000F9040000F9040000F9040000F90400004C
:10040000FFFFFFFFFFFFFFFFFFFFFFFFFEFFFFFFFD
:1004100010B5064C2378002B07D1054B002B02D0DA
:10042000044800E000BF0123237010BD0CFFFF1F34
:10043000000000005877000008B5084B002B03D0DF
:100440000748084900E000BF07480368002B03D0B5
:10045000064B002B00D0984708BDC04600000000A6
:100460005877000010FFFF1F08FFFF1F000000006B
:10047000164B002B00D1144B9D46402292029A1A33
:10048000924600218B460F461348144A121A05F073
:10049000D7FB0F4B002B00D098470E4B002B00D002
:1004A00098470020002104000D000D48002802D0CC
:1004B0000C4800E000BF05F085FB2000290000F09B
:1004C000EBFF05F057FBC04600000800000C0020C1
:1004D00000000000000000000CFFFF1F5803002078
:1004E000000000000000000072B605F03FF805F0C3
:1004F000B3F862B6FFF7BCFF00480047490E0000A2
:10050000002934D00123002210B488422CD30124C6
:100510002407A14204D2814202D209011B01F8E75B
:10052000E400A14204D2814202D249005B00F8E714
:10053000884201D3401A1A434C08A04202D3001B40
:100540005C0822438C08A04202D3001B9C08224373
:10055000CC08A04202D3001BDC082243002803D0B1
:100560001B0901D00909E3E7101C10BC70470028E3
:1005700001D00020C04307B4024802A140180290F5
:1005800003BDC046190000000029F0D003B5FFF7F5
:10059000B9FF0EBC4243891A1847C0467047C0468F
:1005A000002B11D1002A0FD1002900D1002802D040
:1005B0000021C943081C07B4024802A14018029058
:1005C00003BDC046D9FFFFFF03B4684601B50298DA
:1005D00000F044F8019B9E4602B00CBC7047C04638
:1005E0009C460304F0B51B0C17043F0C150C1E1C95
:1005F000041C000C7E436B4347434543FB18300CFF
:100600001818874202D980235B02ED18030CED18FD
:1006100063465C434A433604360CA1180004801933
:100620004919F0BDF0B583B0161C1F1C0090019154
:1006300000F02EF8041C0D1C221C2B1C301C391C35
:10064000FFF7CEFF009A019B121A8B410899201CDC
:100650000A604B60291C03B0F0BDC046F0B583B002
:10066000141C1D1C0090019100F0EEF9221C2B1CA3
:10067000061C0F1CFFF7B4FF009A019B121A8B4156
:100680000899301C0A604B60391C03B0F0BDC046AD
:10069000F0B544465F4656464D46F0B41C1C85B046
:1006A000002900DADBE00F1C0021061C8A46101C22
:1006B000191C002C00DAC9E001960090894680469A
:1006C000002951D1B84200D871E000F07FFB00282A
:1006D00009D020234546311C1B1A85408740D9404C
:1006E000A8460F4386404246150C13041B0C291CD8
:1006F000381C9B46FFF704FF5B464343041C291C40
:10070000381C9946FFF740FF330C08041843814515
:1007100009D94044631E804500D978E1814500D85D
:1007200075E1023C40444946411A8946081C291C8F
:10073000FFF7E6FE5A464243071C291C48469346EB
:10074000FFF722FF36040904360C0E43B34507D9E0
:1007500046447B1EB04502D8023FB34500D81F1C5B
:1007600024042743002403E0B94211D900240027C0
:100770005246381C211C002A03D03B1C0021584241
:10078000A14105B03CBC90469946A246AB46F0BD9F
:10079000081C00F01BFB041E00D0BFE0B94500D2CE
:1007A00042E1019D0099071C8D424741E0E7002886
:1007B00004D101200021FFF7A3FE8046404600F04F
:1007C00005FB002852D1414644460B043C1B1B0C40
:1007D000A3460D0C00930124291C5846FFF790FEF8
:1007E000009F81464743291C5846FFF7CDFE330C36
:1007F000090419438F4208D94B464144013B8845BF
:1008000002D88F4200D91AE19946C91B8B46081CB1
:10081000291CFFF775FE009B291C4343071C584603
:100820000093FFF7B1FE3604009D0904360C0E4319
:10083000B54207D946447B1EB04502D8023FB542B7
:1008400000D81F1C49460E04374391E75246D24355
:10085000031C0C1C924600215842A1412CE70027A2
:1008600046428F41012149428A4620E720231B1A34
:100870004246351C82403C1CDD40DC4087402B1C3E
:10088000150C3B43291C8640201C009317049046FE
:10089000FFF736FE3F0C011C794381468B46201C36
:1008A000291CFFF771FE009C0904230C19438B459A
:1008B0000CD94B464144013B884500D9BDE08B45EE
:1008C00000D8BAE002225242914441445C460C1BDB
:1008D000201C291C0194FFF713FE391C4143041C02
:1008E0008B460198291CFFF74FFE009A0904130458
:1008F0001B0C19438B4509D94144631E884500D917
:1009000097E08B4500D894E0023C41445B46CB1A0B
:1009100049469B460B041C4300975DE7009D20233E
:100920001B1A4A468240DD401543391C009AD940C3
:1009300082408846311C0092D9403A1C82400B1CF0
:10094000134301932F0C2B041B0C391C40460293BC
:10095000FFF7D6FD029A81464243391C4046934632
:10096000FFF712FE019A0904130C19438B450AD9AB
:100970004B464919013B8D425DD88B455BD902231B
:100980005B42994449195A468A1A101C391C039231
:10099000FFF7B6FD029B80464343391C03989B46F4
:1009A000FFF7F2FD019A090413041B0C19438B4550
:1009B0000AD943464919013B8D4238D88B4536D96F
:1009C00002235B42984449195D464D1BAB4649469C
:1009D000009D0F04424617432A04120C3B042D0CC1
:1009E0001B0C380C111C594342436B436843D3180A
:1009F0000D0C5B198C469A4202D980225202801853
:100A00001D0C401983450CD303D00024B0E61C1CF8
:100A100089E665462A041B04120C9B18A6409E42D8
:100A2000F3D2013F0024A3E600240127A0E6984664
:100A3000CAE71C1C6AE79946A5E7994646E70222E1
:100A4000524291444144E0E6F0B55F4656464D4679
:100A50004446F0B40D1C85B0061C924698460290A0
:100A6000019103921F1C141C8346A946002B59D1E7
:100A7000AA4269D9101C00F0A9F900280AD0202345
:100A80001B1A311CD94085400B1C2B4386408440E7
:100A90009946B346250C23041B0C291C484698464E
:100AA000FFF72EFD4646071C4643291C4846FFF724
:100AB0006BFD5A460904130C19438E4209D90919D2
:100AC0007B1E8C4200D957E18E4200D854E1023F90
:100AD0000919891B8946081C291CFFF711FD43468B
:100AE0004343061C291C48469846FFF74DFD5A46CD
:100AF000130409041B0C1943884508D90919731EEE
:100B00008C4200D936E1023E884500D832E13804F3
:100B100030430027391C05B03CBC90469946A2469C
:100B2000AB46F0BD019A934262D8181C00F04EF912
:100B3000041E60D1019B9F4200D22CE1029F0399C9
:100B40008F4260410027E5E7002A04D101200021FF
:100B5000FFF7D6FC041C201C00F038F9002800D058
:100B6000B9E023042D1B1B0CA946260C984601272F
:100B7000311C4846FFF7C4FC41464143051C8A46E8
:100B80004846311CFFF700FD5A460804130C184371
:100B9000824507D900196B1E844202D8824500D9CC
:100BA00010E11D1C5346C31A181C311C9A46FFF74E
:100BB000A7FC41464143814688465046311CFFF719
:100BC000E3FC5A46130409041B0C194388450BD94E
:100BD0004B460919013B8C4200D9CFE0884500D82B
:100BE000CCE002235B42994428044946084391E73C
:100BF000002700208EE720231B1A424657468240DA
:100C0000DF401743524682400192321CDA40291CD1
:100C1000D9408540131C2B4302933D0C3B041B0C15
:100C20008846081C291C9A46FFF76AFC5346434332
:100C30008146291C40469B46FFF7A6FC029A090400
:100C4000130C19438B4506D94B46C919013B8F42FA
:100C500000D8ABE099465A468A1A101C291C9346C4
:100C6000FFF74EFC53464343291C804658469A469C
:100C7000FFF78AFC029A090415042D0C29438A45C2
:100C800006D94346C919013B8F4200D886E09846F1
:100C90005746CF1BBA464946019F080442461043B7
:100CA0003D042D0C03043F0C1B0C020C291C594362
:100CB00055437B437A43EB180F0CDB198C469D425E
:100CC00002D980277F02D2191D0C521992455FD399
:100CD00056D000271EE720231B1A311C2F1CD94099
:100CE000DF4085400B1C84402B4386400193B34674
:100CF0002304260C1B0C381C311C9846FFF700FC03
:100D000042464243051C311C381C9146FFF73CFC0F
:100D1000019F09043B0C1943894507D909196B1E2A
:100D20008C424DD889454BD9023D09194A468A1A49
:100D3000101C311C9246FFF7E3FB43464343071C5C
:100D4000311C50469946FFF71FFC019A0904130411
:100D50001B0C1943894507D909197B1E8C422DD8D4
:100D600089452BD9023F09194B46CB1A2D049946C8
:100D70002F43FDE61E1CCAE61F1CAAE6994633E770
:100D800061460A041B04120C9B18A6409E42A0D286
:100D900001380027BEE600270120BBE68A4500D8BF
:100DA00075E702235B429844C91971E78B4500D867
:100DB00050E702235B429944C9194CE71F1CD3E753
:100DC0001D1CB3E7023D0019ECE6C0461C210123BF
:100DD0001B04984201D3000C10391B0A984201D31E
:100DE000000A08391B09984201D30009043902A2FC
:100DF000105C40187047C046040302020101010163
:100E0000000000000000000080B500AF04F088FC86
:100E1000BD4680BD80B500AF04F0B2FC02F0FEFE1E
:100E2000FFF7F2FFBD4680BD80B500AF012003F0A3
:100E300091FFBD4680BDC04680B500AF002003F0E5
:100E400089FFBD4680BDC04680B500AFFEE7C04605
:100E500080B500AF02F0E2FEBD4680BD80B582B035
:100E600000AF78607B68181C02F0BEFEBD4602B081
:100E700080BDC04680B582B000AF02F0C7F901F076
:100E8000EBFE031C7B607B68002B01D1002302E09A
:100E900001F0B4FE031C181CBD4602B080BDC04664
:100EA00080B582B000AF7860034A80237968D15062
:100EB000BD4602B080BDC04600FEFF1F80B582B0B7
:100EC00000AF786039603B681F2B06D90749084A94
:100ED000084B081CB32104F02FFE3B6801229A4006
:100EE0007B685A60BD4602B080BDC046406B0000C2
:100EF00008730000906B000080B500AF144B181C05
:100F00000621012203F044F9114B181C072100228D
:100F100003F03EF90F4B181C0121012203F038F9B0
:100F20000C4B181C0221002203F032F9094B181C4B
:100F30000521002203F02CF9054B181C0621FFF7B0
:100F4000BDFF044B181C0121FFF7B8FFBD4680BD53
:100F500000F00F4040F00F4080B584B000AFF86063
:100F6000B960FB1D1A70BB681F2B06D909490A4AD4
:100F70000A4B081CFF2104F0DFFDBB689B00FA68E8
:100F8000D318074A1343FA1D127812021A60BD469D
:100F900004B080BD9C6B000038730000EC6B000057
:100FA0000000101480B586B000AFF860B960FB1D7A
:100FB0001A703B1C173300221A7012E03B1C1733C7
:100FC0001B78FA68D3183A1C17321278B9688A1855
:100FD00012781A703B1C17331A783B1C17330132F6
:100FE0001A703A1C1732FB1D12781B789A42E5D30F
:100FF000BD4606B080BDC04680B584B000AF3A6043
:10100000FB1D021C1A70BB1D0A1C1A70FB1D1B78ED
:10101000181C04F08BF8031CFB603B68BB60BB1D15
:101020001B78042B28D002DC022B05D050E1102BBA
:101030002ED0202B30D04BE1BB685A68FB685A6039
:10104000BB681A68A44B1B78591CC8B2A249087027
:10105000D218FB68DA60FB6801221A759E4B1A7879
:101060009E4B1B789A4206D19B4B00221A709C4BD8
:1010700000221A702CE12BE1BB68DA68FB689A60E9
:10108000BB689A68FB681A61FB6801225A751FE108
:10109000FB6800221A751BE1914B1B78002B20D1B5
:1010A0008F4B01221A70BB689B681A788D4B1A709F
:1010B0008D4B01221A708B4B1B78542B02D18B4B1A
:1010C00001221A70874B1B78062B00D8FCE0854B59
:1010D00000221A70824B00221A70834B00221A7071
:1010E000F2E0814B1B78012B00D0BCE0BB689B6811
:1010F0001A787F4B1A707C4B02221A70794B1B783E
:10110000052B00D9ADE09A007A4BD3181B689F4697
:10111000794B00221A70794B00221A70774B042207
:101120005A70764B5B787649764A081C111C1A1C5B
:10113000FFF738FF684B00221A70704B5B78023360
:10114000DAB2664B1A708DE06B4B01221A70644B59
:1011500000221A7086E0684B02221A70674B022246
:101160001A70694B9B68DAB2644B5A70634B5B78B8
:101170006349654A081C111C1A1CFFF713FF564BE4
:1011800000221A705D4B5B780233DAB2534B1A704F
:1011900068E0594B03221A70584B03221A705A4BBD
:1011A0009B68042B03D0584B9B68072B45D1574BAA
:1011B0001B685B68042B04D0544B1B685B68072BCF
:1011C00036D1524B1B68DB681B69002B2CD04F4B70
:1011D0001B68DB681B689B68022B21DD4B4B1B687F
:1011E000DB681B689B68DBB2033BDAB2434B5A7087
:1011F000424B5B78DBB25BB2002B02DA3F4B8022C2
:101200005A70424B1B68DB681B685B69DA1C3B4BFE
:101210005B783B49081C111C1A1CFFF7C3FE0BE04E
:10122000364B00225A7007E0344B00225A7003E01C
:10123000324B00225A7003E002E0304B00225A7019
:10124000254B00221A702D4B5B780233DAB2234B08
:101250001A7007E0284B05221A70214B00221A70E1
:1012600000E0C04630E0204B1B781A1CBB689B682E
:101270001978274B99541C4B1B780133DAB21A4B5F
:101280001A70194B1B781A1C194B1B7802339A429F
:101290001ADB134B00221A70134B00221A70144BE6
:1012A0001B7802331A4A0021D1540E4B1B78042BB1
:1012B00002D0062B04D007E00F4B04221A7003E083
:1012C0000D4B06221A70C046FB6800225A75C046B4
:1012D000BD4604B080BDC046280000202A00002082
:1012E0002D0000202C000020290000202F000020CD
:1012F0002B000020207300002E00002028FFFF1F7D
:101300002AFFFF1F8CFEFF1F6C02002078020020C6
:10131000A8FFFF1F80B500AF174B184A1A60164B85
:10132000174A9A60144B01225A60134B0122DA606B
:10133000144B06221A80134B134A5A60114B0E4A63
:101340009A60104B01229A700E4B01221A730F4BB8
:10135000181C03210322FFF7FFFD0C4B181C04216E
:101360000322FFF7F9FD074A094B0120111C1A1C43
:1013700003F056FEBD4680BD2002002028FFFF1F5F
:10138000A8FFFF1F10020020F90F0000009004408A
:101390003002002080B584B000AFF860B960FB1D5A
:1013A0001A70BB681F2B06D909490A4A0A4B081C48
:1013B000FF2104F0C1FBBB689B00FA68D318074A01
:1013C0001343FA1D127812021A60BD4604B080BDA4
:1013D000F86B00007C730000486C000000001014E3
:1013E00080B582B000AF786039603B681F2B06D9AA
:1013F0000749084A084B081CB32104F09DFB3B68D1
:1014000001229A407B685A60BD4602B080BDC0464A
:10141000546C000064730000A46C000080B582B0BE
:1014200000AF786039603B681F2B06D90749084A2E
:10143000084B081CBF2104F07FFB3B6801229A4047
:101440007B689A60BD4602B080BDC046546C000007
:101450004C730000A46C000080B582B000AF7860CF
:1014600039603B681F2B06D908489B235900084A5E
:10147000084B04F061FB7B681A693B68DA40012382
:101480001340181CBD4602B080BDC046546C00001D
:1014900090730000A46C000080B500AFFFF7BAFCA9
:1014A000FFF7D6FCFFF728FDFFF734FF01F0A0FBA4
:1014B0007B4B1B78012B26D1794B00221A70794B7C
:1014C0001B78012B5CD0784B181C0121FFF7A6FF7D
:1014D0006420FFF7C3FC744B181C0121FFF780FF49
:1014E0006420FFF7BBFC01F087F9031C002B03D03D
:1014F0006C4B01221A7043E06A4B00221A70684B51
:1015000001221A703CE0664B1B78062B38D1644BE5
:1015100000221A70634B1B78022B31D0624B181CCF
:101520000121FFF77BFF6420FFF798FC5E4B181C3E
:101530000121FFF755FF6420FFF790FC5B4B9A7881
:101540005B4B1A70594BDA78594B5A70574B1A79D2
:10155000574B9A70564B181CFFF7A2FCFFF78AFCFA
:10156000031C002B06D04F4B02221A70514B002255
:101570009A6005E04B4B00221A70494B06221A7004
:10158000484B1B78012B00D084E0454B1B78032B84
:1015900011D002DC022B05D07CE0042B30D0052BCF
:1015A0005FD077E03E4B00221A70424B181C1E2180
:1015B00001F038F96EE03A4B00221A703D4B181CCE
:1015C0001E2101F02FF9031C002B18D0394B181CD9
:1015D0001E2101F027F9031C002B10D0364B1B787D
:1015E000002B0CD1334B181C01F052F9021C334B69
:1015F0001A60324B1B68181C01F0E6FA4AE049E019
:10160000274B00221A702B4B181C1E2101F00AF9DF
:10161000031C002B24D0274B181C1E2101F002F9BB
:10162000031C002B1CD000F05FFD021C244B1A6031
:10163000234B1A68234B101C191C00F0D5FE204BBD
:101640001B681C4A101C191C01F064F9031C1A1CAD
:101650001D4B1A701A4B1B68181C00F041FE19E054
:1016600018E00F4B00221A70124B181C1E2101F0BB
:10167000D9F8031C002B0CD00E4B181C1E2101F0B6
:10168000D1F8031C002B04D00A4B181C01F08AF976
:10169000FFE7C04600F01AF86420FFF7DFFB07E71A
:1016A0002E0000206802002040F00F40A8FFFF1F1E
:1016B00090FEFF1F6C0200202D0000207802002009
:1016C0007C020020AAFFFF1F8002002080B500AF2F
:1016D0002B4B1B78002B51D0294B00221A70294B21
:1016E000181C0621012202F053FD264B181C07216D
:1016F000002202F04DFD244B181C03210122FFF7AC
:1017000049FE214B181C04210122FFF743FE1D4B0B
:10171000181C0321012202F03BFD1A4B181C042166
:10172000012202F035FD174B181C0721FFF794FE2C
:10173000031C002B0FD0134B181C0621FFF76EFE65
:10174000104B181C0421FFF74BFE0E4B181C0321F5
:10175000FFF764FE0EE00B4B181C0621FFF740FE5E
:10176000084B181C0421FFF759FE064B181C0321D7
:10177000FFF736FE6420FFF771FBD4E7BD4680BD5E
:101780002F00002000F00F4000900440F0B599B009
:1017900002AFF861B9616B461E1C3A1C3832774BB8
:1017A000111C1A1C0623081C111C1A1C04F03FFAF9
:1017B00004237B6500237B6300233B63BB69DAB2B0
:1017C0007B6DF969381C38300090081C111C1A1CFC
:1017D000002301F04FFB031CFB64FB6C002B31D09A
:1017E0007B6DDAB23B1C2033101C191C01F0CCFBC2
:1017F000031CFB64FB6C002B1AD0391C20313A1CF3
:1018000030323B1C3433081C111C1A1C00F0FCF94C
:10181000031C01225340DBB2002B1DD0F969BA69C9
:10182000574B081C111C1A1C01F028F9031C9FE0DF
:10183000F969BA69534B081C111C1A1C01F01EF9F6
:10184000031C95E0F969BA694E4B081C111C1A1C5F
:1018500001F014F9031C8BE000233B653B6B181C63
:1018600000F08CF9031CBB64BB6C5A1E7A641A1C12
:101870003A6100227A6139694A0F7969C900F960D1
:10188000F9681143F9603A69D2001A1C141C00224D
:10189000151C620FE9007960796811437960E200F4
:1018A0000733DB08DB006946C91A8D4602AB0033FB
:1018B0003B644EE07B6D181C01F0AAFA031C002B60
:1018C0001DD0BB69DAB27B6DF969381C38300090E5
:1018D000081C111C1A1C002301F0CCFA031CFB6429
:1018E000FB6C002B0BD10023FB64F969BA69244B14
:1018F000081C111C1A1C01F0C1F8031C38E07B6D98
:10190000DAB2396C3B6DCB18101C191C01F03CFB92
:10191000031CFB64FB6C002B0BD10023FB64F969F7
:10192000BA69174B081C111C1A1C01F0A7F8031CFC
:101930001EE03B6D10333B657B6D01337B657B6D3A
:10194000181C01F07DFA031C002B02D07B6D0133C3
:101950007B653A6DBB6C9A42ACDB7B6B3A6CD318FF
:101960003C6BF869B969074A009401F0F1F8031C6F
:10197000B546181CBD4617B0F0BDC046C86C000087
:10198000B06C0000B86C0000F0B5A1B002AFF86414
:10199000B9647A646B461E1CFB6C181C00F0B2FC28
:1019A000051C6B1EFB662B1CBB630023FB63BA6B21
:1019B000530FFA6BD2007A637A6B1A437A63BB6B6C
:1019C000DB002B1CBB620023FB62BA6A530FFA6A6E
:1019D000D2007A627A6A1A437A62BB6ADB002B1CF5
:1019E0000733DB08DB006A46D21A954602AB0033A8
:1019F000BB66BB6EFA6C101C191C00F0A5FC281C01
:101A000000F0BCF8041C631E7B66231CBB61002332
:101A1000FB61BA69530FFA69D2007A617A691A4395
:101A20007A61BB69DB00231CBB600023FB60BA68E2
:101A3000530FFA68D2007A607A681A437A60BB68FA
:101A4000DB00231C0733DB08DB006A46D21A95460D
:101A500002AB00333B663A6E231C101C00211A1C9B
:101A600004F0EEF82B1CFE2B14D83B6E03221A70E8
:101A7000EAB23B6E5A703B6E991CBA6E2B1C081C66
:101A8000111C1A1C04F0D3F82B1C02333A6EFE21F1
:101A9000D1541BE03B6E03221A703B6EFF225A703A
:101AA0002B1C1B0ADAB23B6E9A70EAB23B6EDA70FC
:101AB0003B6E191DBA6E2B1C081C111C1A1C04F05D
:101AC000B6F82B1C04333A6EFE21D15400237B67F9
:101AD00004233B673A1C5032274B111C1A1C062367
:101AE000081C111C1A1C04F0A2F83AE03B6F181CE9
:101AF00001F08EF9031C002B13D07B6CDAB23B6F24
:101B0000B96C381C50300090081C111C1A1C0023A2
:101B100001F0B0F9031CFB65FB6D002B01D1002324
:101B200024E03B6FDAB2396E7B6FCB18101C191CA6
:101B300001F068FA031CBB65BB6D002B01D10023CB
:101B400014E07B6F10337B673B6F01333B673B6F68
:101B5000181C01F075F9031C002B02D03B6F0133F8
:101B60003B677A6F231C9A42C0D30123B546181CE9
:101B7000BD461FB0F0BDC046C86C000080B584B043
:101B800000AF78607B68FB607B68FE2B03DCFB6842
:101B90000333FB6002E0FB680533FB60FA680F2348
:101BA000134007D0FB68002B00DA0F331B11013301
:101BB0001B01FB60FB68181CBD4604B080BDC0461D
:101BC00080B584B000AF78600023FB6013E0FB6851
:101BD0007A68D3181B78002B0AD0FB687A68D31870
:101BE0001B78032B01D1FB680AE002235B4207E06C
:101BF000FB680133FB60FB680F2BE8DD01235B42D0
:101C0000181CBD4604B080BD80B586B000AFF8603A
:101C1000B9607A60FB68181CFFF7D2FF031C7B6178
:101C20007B69002B05DB7B69FA68D3181B78032BD3
:101C300001D0002326E07B690133FA68D3181B78B2
:101C4000FF2B12D17B690233FA68D3181B781A0272
:101C50007B690333F968CB181B781A43BB681A6099
:101C60007B691A1D7B681A600BE07B690133FA6897
:101C7000D3181B781A1CBB681A607B699A1C7B6896
:101C80001A600123181CBD4606B080BDF0B58FB0A8
:101C900000AFF861B9616B461E1C00F06DF9031CC2
:101CA000002B09D0F969BA69504B081C111C1A1C89
:101CB00000F0E4FE031C94E000F092F900F0A8F9B3
:101CC00000F0F8F94A4B5B68002B0FD100F00CFADA
:101CD000031C3B633B6B181C00F004FCF869B969FA
:101CE000424A3B6B00F0FEFE031C7AE03B1C36339D
:101CF00000221A703E4B9B681A1C013AFA623B6143
:101D000000227A6139694A0F7969C900F960F96876
:101D10001143F9603A69D2001C1C0022151C620FA5
:101D2000E9007960796811437960E2000733DB08E4
:101D3000DB006946C91A8D466B460033BB623B1C0B
:101D4000373304221A7034E03B1C36331B78BA6AEE
:101D5000D3183A1C37321278101C191C01F096F96E
:101D6000031C1A1C3B1C2733511E8A411A703B1C52
:101D700027331B78002B03D11D4B00225A601DE036
:101D80003B1C36331A781A4B5968194BDB68CB1851
:101D90009A4200D312E03B1C36333A1C363212789A
:101DA00004321A703B1C37331A783B1C373301322C
:101DB0001A703B1C37331B783E2BC5D90C4BDB68A4
:101DC000BA6AD2180A4B5B68101C191C00F09CF907
:101DD000031C3B62F869B969044A3B6A00F082FE61
:101DE000031CB546181CBD460FB0F0BDFC6C0000CE
:101DF00084020020F0B591B000AF78623962FA61D8
:101E00006B461E1C00F0B8F8031C002B01D0002309
:101E1000AAE000F0E5F87B6A181C00F073FA031CD6
:101E20001A1C544B5A60534B5B68FE2B01D802229C
:101E300000E004224F4BDA6000F03CF94D4B9A6809
:101E40004C4B1B689A4201D900238DE0494B9B689B
:101E50001A1C013A3A633B6100227A6139694A0FE0
:101E60007969C900F960F9681143F9603A69D200EB
:101E70001C1C0022151C620FE9007960796811436F
:101E80007960E2000733DB08DB006946C91A8D463A
:101E90006B460033FB62FB6AFB630023BB633B1CA6
:101EA000373304221A70FB6A03221A70314B5B68C5
:101EB000FE2B05D82F4B5B68DAB2FB6A5A700DE037
:101EC000FB6AFF225A702B4B5B681B0ADAB2FB6A73
:101ED0009A70284B5B68DAB2FB6ADA70FA6A254BB3
:101EE000DB68D3187A6A101C191C00F02DFAFA6A04
:101EF000204BD9681F4B5B68CB18D2181D4B9968D3
:101F00001C4BDB68C91A1B4B5B68CB1A101C0021E9
:101F10001A1C03F095FE174BDA68164B5B68D31852
:101F2000FA6AFE21D15419E03B1C37331A78FB6B57
:101F3000101C191C01F0EEF8031C002B01D100232A
:101F400012E03B1C37331A783B1C373301321A70CE
:101F5000FB6B0433FB63BB6B0433BB63054B9A68B9
:101F6000BB6B9A42E0D80123B546181CBD4611B0A0
:101F7000F0BDC0468402002080B582B000AFFB1DDA
:101F800004221A70FB1D1A783B1C101C191C01F04E
:101F90007DF8031C1A1CBB1D511E8A411A70BB1D03
:101FA0001B78002B17D03B1C1B78FF2B0DD13B1C43
:101FB0005B78FF2B09D13B1C9B78FF2B05D13B1C89
:101FC000DB78FF2B01D1012300E000231A1C012341
:101FD0001340DBB200E00023181CBD4602B080BDF8
:101FE00080B582B000AF3B1C0320191C01F04EF8F5
:101FF000031C7B607B68002B05D03B1C9B78DB00BF
:102000001A1C024B1A60BD4602B080BD840200203B
:1020100080B586B000AF3B1C3B613B1C0F330122F7
:102020001A7004237B611EE03B1C0F331B78002BCE
:102030000BD07B69DAB23B69101C191C01F026F841
:10204000031C002B01D0012200E000223B1C0F33B7
:102050001A70197801220A401A703B6904333B61F7
:102060007B6901337B617B69052BDDDD3B1C0F3315
:102070001B78002B18D03B1C1B78032B08D13B1C72
:102080005B781A1C0A4B5A60094B0222DA600BE09B
:102090003B1C5B79032B07D13B1C9B791A1C044B1F
:1020A0005A60034B0722DA60BD4606B080BDC046C9
:1020B0008402002080B500AF0A4B5A68094BDB68E8
:1020C000D3185A1C074B9A60064B9A680323134097
:1020D00006D0044B9B689B0801339A00014B9A6021
:1020E000BD4680BD8402002080B582B000AF054BA4
:1020F0007B607B6800221A617B68181CBD4602B0B9
:1021000080BDC0469402002080B58AB000AF7860E0
:102110003960724BBB6100237B62BB6900221A618C
:10212000D1E07B6A7A68D2183B1C173312781A7098
:102130003B1C17331A783B1C1633D2091A703B1C10
:1021400017331A7840231A403B1C1533511E8A411D
:102150001A703B1C17331A7820231A403B1C143387
:10216000511E8A411A703B1C17331A7810231A40EB
:102170003B1C1333511E8A411A703B1C17331A78CB
:1021800008231A403B1C1233511E8A411A703B1C13
:1021900011333A1C1732117807220A401A7000F0E6
:1021A000B7F9031CFB60FA683B1C11331B78101C49
:1021B000191C00F0B3FA7B6A01337B627B6A7A6890
:1021C000D3181B78BB6000233B623B1C13331B7886
:1021D000002B08D07B6A01337B627B6A7A68D31854
:1021E0001B783B6222E07B6A01337B627B6A7A6800
:1021F000D3181B781A067B6A01337B627B6A796885
:10220000CB181B781B041A437B6A01337B627B6A01
:102210007968CB181B781B021A437B6A01337B62F7
:102220007B6A7968CB181B7813433B620023FB6100
:102230003B1C12331B78002B07D07B6A01337B6277
:102240007B6A7A68D3181B78FB617B6A01337B62F7
:102250007B6A7A68D218BB68F968081C111C1A1CC2
:1022600000F06AFA7A6ABB68D3187B623B1C1233AF
:102270001B78002B0DD07B6A7A68D218FB69F9684D
:10228000081C111C1A1C00F097FA7A6AFB69D31813
:102290007B627B6A7A68D218F9683B6A081C111C59
:1022A0001A1C00F069FA7A6A3B6AD3187B62BA6931
:1022B000FB68101C191C00F07BF83B1C15331B78C5
:1022C000002B00D004E07A6A3B689A4200DC28E7E1
:1022D000BB69181CBD460AB080BDC04694020020F0
:1022E00080B584B000AF78600023FB6002E0FB683B
:1022F0000133FB60FA687B681B699A42F7D3BD46DD
:1023000004B080BD80B584B000AF78600023FB606E
:102310000023BB600DE07B68BA689200D358181C9C
:1023200000F018F9031CFA68D318FB60BB6801338E
:10233000BB60BA687B681B699A42ECD3FB68181CC7
:10234000BD4604B080BDC04680B584B000AF7860A3
:1023500039603B68FB600023BB6021E07B68BA68A2
:102360009200D058BB685A425341DAB2BB6801337D
:10237000191C7B681B69CB1A59424B41DBB2F968C7
:1023800000F010F97B68BA689200D358181C00F06E
:10239000E1F8031CFA68D318FB60BB680133BB602B
:1023A000BA687B681B699A42D8D3BD4604B080BD29
:1023B00080B582B000AF786039607B681B69032B01
:1023C0000CD87B681A697B6892003968D1507B68A9
:1023D0001B695A1C7B681A61012300E00023181C4A
:1023E000BD4602B080BDC046F0B58DB000AFF8610B
:1023F000B9616B461E1C00F08BF8031CFB62FB6A84
:10240000181C012100F08AF93B1C203354221A7059
:10241000FA6A3B1C2033101C191C012200F08CF9B5
:10242000BB69181C03F0C2FC031C04331A1C013ADC
:10243000BA623B6100227A6139694A0F7969C90041
:10244000F960F9681143F9603A69D2001C1C002256
:10245000151C620FE9007960796811437960E20028
:102460000733DB08DB006946C91A8D466B4600332B
:102470007B62BB69181C03F099FC031C03337A6A66
:102480000021D1547A6A164B101C191C032203F048
:10249000CEFB7B6ADC1CBB69181C03F087FC031CA9
:1024A000BA69201C111C1A1C03F0C1FB7B6A0222B2
:1024B0001A707C6ABB69181C03F078FC031C033398
:1024C000FA6A101C211C1A1C00F056F9FA69FB6A02
:1024D000101C191CFFF76CFFB546BD460DB0F0BDD2
:1024E000106D000080B584B000AF786000F010F887
:1024F000031CFB60FB68181C002100F00FF97A68D0
:10250000FB68101C191CFFF753FFBD4604B080BDCB
:1025100080B582B000AF0E4B7B607B6800221A70E2
:102520007B6800225A607B6800229A607B680022E8
:10253000DA607B6800221A617B6800225A617B683E
:1025400000229A617B68181CBD4602B080BDC0465F
:10255000A802002080B584B000AF78600223FB6041
:102560007B689B68FF2B03DDFB680433FB6002E0A4
:10257000FB680133FB607B68DB68002B02D0FB68E3
:102580000133FB607B685A687B689B68D2187B6864
:10259000DB68D218FB68D318FB60FB68181CBD46CB
:1025A00004B080BD80B586B000AFF860B960111C82
:1025B0001A1CFB1D1970BB1D1A70BB687B61F96882
:1025C000FB1D1A78BB1D1B78081C111C1A1C00F07F
:1025D00073F8031C1A1C7B691A707B6901337B61D9
:1025E000FB685B68DAB27B691A707B6901337B61D7
:1025F000FB689B68FF2B08DCFB689B68DAB27B6991
:102600001A707B6901337B6116E07B6900221A70C6
:102610007B69013300221A707B699A1CFB689B68F6
:102620001B12DBB213707B69DA1CFB689B68DBB2A0
:1026300013707B6904337B61FB68DB68002B07D078
:10264000FB68DB68DAB27B691A707B6901337B61F6
:10265000FB681A69FB685B687969081C111C1A1C05
:1026600003F0E5FAFB685B687A69D3187B61FB6865
:102670005A69FB689B687969081C111C1A1C03F0D5
:10268000D6FAFB689B687A69D3187B61FB68DB68C4
:10269000002B0ED0FB689A69FB68DB687969081C1F
:1026A000111C1A1C03F0C3FAFB68DB687A69D318A3
:1026B0007B61BD4606B080BD80B584B000AF786058
:1026C000FB1C1970BB1C1A707B681B78FB60FB1C21
:1026D0001B78002B03D0FB6880221343FB60BB1CDC
:1026E0001B78002B03D0FB6840221343FB607B6800
:1026F0009B68FF2B03DCFB6810221343FB607B68A5
:10270000DB68002B03D0FB6808221343FB60FB68E7
:10271000DBB2181CBD4604B080BDC04680B582B097
:1027200000AF78600A1CFB1C1A707B68FA1C1278D8
:102730001A70BD4602B080BD80B584B000AFF860AD
:10274000B9607A60FB680B4A1A61FB681969BA685C
:102750007B68081C111C1A1C03F069FAFB681A69D3
:102760007B68D31800221A70FB687A685A60BD46ED
:1027700004B080BD3000002080B584B000AFF860A8
:10278000B9607A60FB680B4A5A61FB6859697B68DB
:10279000BA68081C111C1A1C03F049FAFB685A6934
:1027A0007B68D31800221A70FB687A689A60BD466D
:1027B00004B080BD5000002080B584B000AFF86048
:1027C000B9607A60FB680B4A9A61FB689969BA68DC
:1027D0007B68081C111C1A1C03F029FAFB689A6913
:1027E0007B68D31800221A70FB687A68DA60BD46ED
:1027F00004B080BDD000002080B582B000AF00F0F2
:1028000005FD00F029FA031C7B607B68002B01D1D9
:10281000002302E000F0F2F9031C181CBD4602B0D0
:1028200080BDC04680B586B002AF786039607B68F5
:1028300000229A603B68002B10D17A687B680833CD
:10284000002100910020111C1A1C002300F046FA00
:10285000031C1A1C3B1C0F331A700FE079687B684D
:102860001A1C08323B689BB200200090002000F048
:1028700035FA031C1A1C3B1C0F331A703B1C0F3318
:102880001B785A1E9341DBB2181CBD4604B080BDB4
:1028900080B584B000AF78607B68181C00F0A4F8A5
:1028A000021C3B1C0F331A703B1C0F331B78002B90
:1028B00008D17A687B689B68101C191CFEF766FFBC
:1028C000031C23E03B1C0F331B78022B08D17A68D2
:1028D0007B689B68101C191CFFF7D8F9031C15E0D6
:1028E0003B1C0F331B78632B08D17A687B689B688D
:1028F000101C191C00F088F8031C07E07A687B683C
:102900009B68101C191C00F07FF8031C181CBD46A6
:1029100004B080BD90B585B000AF786039607B6849
:10292000181C00F061F8021C3B1C0E331A703B1C93
:102930000E331B78002B0DD17A687B689B683C1C9A
:102940000F343968081C111C1A1CFFF71DF8031CF2
:10295000237020E03B1C0E331B78022B0DD17A68CC
:102960007B689B683C1C0F343968081C111C1A1CBE
:10297000FFF740FA031C23700DE03B1C0E331B785D
:10298000632B04D13B1C0F3300221A7003E03B1C65
:102990000F3300221A703B1C0F331B78181CBD46E6
:1029A00005B090BD90B585B000AF7860FFF79CFB97
:1029B000031CFB60FB68181CFFF794FD3C1C0B34E8
:1029C0007A68FB68101C191CFFF7A4FF031C237016
:1029D000FB68181CFFF784FC3B1C0B331B78181C8E
:1029E000BD4605B090BDC04680B582B000AF7860EE
:1029F0007B689B68042B01D1002300E00223181C94
:102A0000BD4602B080BDC04680B586B000AF7860DC
:102A100039603A1C0C32164B111C1A1C0723081C77
:102A2000111C1A1C03F003F9124B7B617B697A6855
:102A30001A607B693A685A607B690F4A9A607B69C1
:102A40009B68073300221A707B699A683B1C0C3321
:102A5000111C1A1C0723081C111C1A1C03F0E7F890
:102A60007B690022DA607B69181CBD4606B080BD18
:102A7000146D0000C4020020F000002090B587B063
:102A800000AFF860B9607A60144B7B617B69FA68CB
:102A90001A607B69BA685A607B69114A9A607B69DF
:102AA0009C687B68181C03F081F9031CE318002262
:102AB0001A707B699C687B68181C03F077F9031C0B
:102AC0007A68201C111C1A1C03F0B1F87B690022E3
:102AD000DA607B69181CBD4607B090BDC4020020B7
:102AE000F000002090B587B000AFF860B9607A6060
:102AF0003B60154B7B617B69FA681A607B69BA6839
:102B00005A607B69114A9A607B699C687B68181CD3
:102B100003F04CF9031CE31800221A707B699C68CF
:102B20007B68181C03F042F9031C7A68201C111CF6
:102B30001A1C03F07CF87B693A68DA607B69181C20
:102B4000BD4607B090BDC046C4020020F000002082
:102B500090B587B000AFF860B9607A603B60184B01
:102B60007B617B69FA681A607B69BA685A607B6925
:102B7000144A9A607B699C687B68181C03F016F9FC
:102B8000031CE31800221A707B699C687B68181C80
:102B900003F00CF9031C7A68201C111C1A1C03F0AA
:102BA00046F83A68BB6A101C191CFFF7ADFA021C04
:102BB0007B69DA607B69181CBD4607B090BDC046D2
:102BC000C4020020F000002080B584B000AF78601F
:102BD0000023FB6002E0FB680133FB60FA687B685E
:102BE000DB681B699A42F6D3BD4604B080BDC0467F
:102BF00080B500AF00F0F0FABD4680BD80B500AFF3
:102C0000134B1422DA73124B01221A74104B142244
:102C10005A740F4B01229A740E4B181C0421002287
:102C2000002300F063FB031C002B01DA00230BE000
:102C3000084B181C40210A2200F062FC031C002BE8
:102C400001DA002300E00123181CBD4680BDC04608
:102C5000D4020020E302002080B582B000AF1D4BFB
:102C60000222DA731C4B181C01210022002300F001
:102C70003DFB031C002B01DA002326E0164B181C39
:102C800040210A2200F03CFC031C002B01DA002347
:102C90001BE0104BDB7B7B607B681B027B600D4B7A
:102CA0001B7C7A6813437B607B681B027B60094B4B
:102CB0005B7C7A6813437B607B681B027B60054BFF
:102CC0009B7C7A6813437B607B68181CBD4602B00E
:102CD00080BDC046D4020020E302002080B586B04B
:102CE00000AFB9607A601A1C3B1C0F33011C1970CD
:102CF0003B1C0C331A803B1C0C331B88002B04D16B
:102D00003B1C0C33FA2292001A803B1C20331B78A8
:102D100001225340DBB2002B03D03B1C20330022A6
:102D20001A70394B4A22DA73374B01221A74364B28
:102D30003A1C0F3212785A74344B181C03210022AB
:102D4000002300F0D3FA031C002B01DA002357E024
:102D50002E4A3B1C0C331B88101C40211A1C00F00F
:102D6000CFFB031C002B01DA002349E0264BDB7B61
:102D7000012B01D0002343E0234B5A7C3B1C14332E
:102D80001A803B1C14333A1C1432128812021A8027
:102D90001D4B9B7C191C3B1C14333A1C14321288AB
:102DA0000A431A80184B1A7D7B681A703B1C173334
:102DB00000221A7013E03B1C17331B78BA68D31833
:102DC0003A1C1732127806320F498A18D27B1A70D1
:102DD0003B1C17331A783B1C173301321A700A4B0D
:102DE0001B7D3A1C173212789A42E4D33B1C2033E5
:102DF0001B78002B03D0044B1A7C034B9A730123DE
:102E0000181CBD4606B080BDD4020020E30200209D
:102E100080B582B000AF78607B687F2B06D87A6877
:102E2000032313405A425341DBB205E07A680F2373
:102E300013405A425341DBB2181CBD4602B080BD5C
:102E400080B582B000AF78607B687F2B07D87B6845
:102E50005A1C032313405A425341DBB206E07B68FD
:102E60005A1C0F2313405A425341DBB2181CBD4673
:102E700002B080BD80B586B000AFF8607A601A1CE1
:102E80003B1C0B3319703B1C0A331A703C4A3B6ADB
:102E9000111C08311A1C0623081C111C1A1C02F0F4
:102EA000C6FE3B1C0B331B783549FA68081C111C05
:102EB0001A1C02F0BCFE324B3A1C0B321278DA714B
:102EC0002F4B4022DA732E4B01221A743B1C0A331B
:102ED0001B78002B01D0612300E06023284A537443
:102EE0007B68DAB2264B9A7425491322244B891841
:102EF0001A1C08320623081C111C1A1C02F097FE2B
:102F00003B1C173300221A7012E03B1C17331B784E
:102F10000A333A1C1732127819498A5C1849CB18BF
:102F2000DA733B1C17331A783B1C173301321A70C3
:102F3000134BDB793A1C173212789A42E5D3104BC7
:102F4000DB790A33DBB20F4A101C191C0022002364
:102F500000F0CCF9031C002B01DA00230CE0094B34
:102F6000181C40210A2200F0CBFA054BDB7B002B1A
:102F700001D0002300E00123181CBD4606B080BD2F
:102F8000D4020020E302002080B582B000AF021C12
:102F90003960FB1D1A70184B4022DA73164B012260
:102FA0001A74154B30225A74134BFA1D12789A7406
:102FB000124B181C04210022002300F097F9031C77
:102FC000002B01DA002313E00C4B181C40210A22CD
:102FD00000F096FA084BDB7B002B01D0002307E0C2
:102FE0003A68074B101C191C102202F020FE012326
:102FF000181CBD4602B080BDD4020020E3020020B0
:10300000E402002090B585B000AF021C3960FB1DC2
:103010001A701B4B4022DA73194B01221A74184B99
:10302000A0225A74164BFA1D12789A74154A3B68FE
:10303000101C191C102202F0FAFD134B181C14214D
:103040000022002300F052F9031C002B01DA0023B8
:1030500011E03C1C0F340C4B181C40210A2200F0DC
:103060004FFA031C23703B1C0F331B787F2B01D9B5
:10307000002300E00123181CBD4605B090BDC046EA
:10308000D4020020E7020020E302002080B582B0D5
:1030900000AF021C3960FB1D1A70FB1D1B783F2B13
:1030A00001D900232CE0184B4022DA73164B012281
:1030B0001A74154B30225A74134BFA1D12789A74F5
:1030C000124B181C04210022002300F00FF9031CEE
:1030D000002B01DA002313E00C4B181C40210A22BC
:1030E00000F00EFA084BDB7B002B08D13A68084B46
:1030F000101C191C042202F09AFD012300E0002399
:10310000181CBD4602B080BDD4020020E30200209E
:10311000E402002080B582B000AF021C3960FB1DC4
:103120001A70174B4022DA73154B01221A74144B94
:10313000A2225A74124BFA1D12789A74114A3B68F3
:10314000101C191C042202F072FD0F4B181C0821E0
:103150000022002300F0CAF8031C002B01DA002330
:103160000AE0094B181C40210A2200F0C9F9031C8F
:10317000DA17D31ADB0FDBB2181CBD4602B080BDD4
:10318000D4020020E7020020E302002080B584B0D2
:1031900000AFF860B960FB1D1A70BB681F2B06D921
:1031A00009490A4A0A4B081CFF2102F0C5FCBB680A
:1031B0009B00FA68D318074A1343FA1D12781202CB
:1031C0001A60BD4604B080BD1C6D0000A8730000ED
:1031D0006C6D00000000101480B500AF094B181C86
:1031E00003210222FFF7D2FF064B181C0421022202
:1031F000FFF7CCFF044B0020191C01F0F5F8BD4689
:1032000080BDC04600A004402803002090B585B0D2
:1032100002AFBB1D24221A70FC1D094BBA1D00927F
:10322000012201920020191C0022002301F08AF9DA
:10323000031C23701420FDF711FEBD4603B090BDA2
:1032400094FEFF1F90B589B002AF3A1C0C32254B9B
:10325000111C1A1C0623081C111C1A1C02F0E7FC86
:103260003B1C163300221A803C1C15341E4B3A1DA1
:103270000092072201920020191C0022002301F075
:103280007BF9031C23700120FDF7E8FD3B1D1B7833
:103290001A1C012313400DD0C0463B1D5A1C3B1C79
:1032A0000C33101C191C062202F0B2FC031C002B6C
:1032B00011D00EE03B1C16331A883B1C163301322A
:1032C0001A803B1C16331B880A2B01D9FE2303E00E
:1032D000CAE7FF2300E000235BB2181CBD4607B01D
:1032E00090BDC046786D000094FEFF1F90B589B078
:1032F00002AFF8607A601A1C3B1C0B3319703B1C40
:103300000A331A703B1C173300221A70FB681A78B4
:10331000784B1A70784B181C0021902202F090FC18
:103320003B1C17331B783A1C1732591C1170724A18
:103330000021D1543B1C17331B783A1C1732591CFF
:1033400011706D4A0021D1543B1C17331B783A1C75
:103350001732591C1170684AFF21D1543A1C0B32A4
:103360003B1C0A3312781B78D318DAB23B1C133398
:1033700001321A703B1C17331B783A1C1732591C48
:1033800011705D4A391C13310978D1543B1C173335
:103390001B783A1C1732591C11703A1C13321278E0
:1033A0005242D1B2544AD1543B1C17331B783A1CB9
:1033B0001732591C1170504AD421D1543B1C16337A
:1033C000D4221A703B1C153300221A7022E03B1CD9
:1033D00017331B783A1C1732591C11703A1C1532DE
:1033E0001278F9688A181178434AD1543B1C153376
:1033F0001B78FA68D31819783B1C16333A1C16321E
:1034000012788A181A703B1C15331A783B1C153336
:1034100001321A703A1C15323B1C0B3312781B78A0
:103420009A42D4D33B1C143300221A7022E03B1C76
:1034300017331B783A1C1732591C11703A1C14327E
:103440001278F9688A1811782B4AD1543B1C14332E
:103450001B78FA68D31819783B1C16333A1C1632BD
:1034600012788A181A703B1C14331A783B1C1433D8
:1034700001321A703A1C14323B1C0A3312781B7842
:103480009A42D4D33B1C12333A1C16321278524261
:103490001A703B1C17331B783A1C1732591C1170D9
:1034A000154A391C12310978D1543B1C17331B784B
:1034B0003A1C1732591C11700F4A0021D1543B1C81
:1034C00017331A783C1C11340C4B0B4900910192B4
:1034D0000020191C0022002301F034F8031C237083
:1034E0000320FDF7BBFCFFF7ADFE031C181CBD4617
:1034F00007B090BD240300200001002094FEFF1FB0
:1035000090B589B002AF7860FB1C19703B1C1A8023
:103510003B1C173300221A703B1C143300221A8004
:10352000854B181C0021902202F08AFBFB1C1B78A3
:1035300002331A1C3C1C1134804B7F4900910192CC
:103540000020191C0022002301F016F8031C237030
:103550000320FDF783FC784B1B781A1C01231340D2
:1035600010D0C0463B1C173301221A703B1C173386
:103570001B783A1C1732591C11706F4AD35C002B10
:1035800017D014E03B1C14331A883B1C143301324F
:103590001A803B1C1B88002B08D03A1C14323B1CA1
:1035A00012881B889A4201D9FE23BFE0BEE7FD23A3
:1035B000BCE03B1C17331B783A1C1732591C1170A6
:1035C0005D4AD35C002B01D0FD23AFE03B1C1733D9
:1035D0001B783A1C1732591C1170574AD35CFF2BC9
:1035E00001D0FD23A2E03B1C17331B783A1C173295
:1035F000591C11701A1C3B1C10334F498A5C1A70FD
:103600003B1C17331B783A1C1732591C11704A4A5D
:10361000D25C3B1C10331B78D318DBB2002B01D0DB
:10362000FD2383E0464B1A783B1C0F3301321A709E
:103630003B1C17331B783A1C1732591C11703E4A39
:10364000D35CD52B0DD13B1C17331B783A1C17329A
:10365000591C1170384AD35C3A1C0F3212789A42C6
:1036600001D0FD2362E03B1C10333A1C103212786B
:10367000023A1A703A1C1032FB1C12781B789A42DC
:1036800001D9FC2352E03B1C13333A1C0F32127851
:103690002B3A1A703B1C123300221A7022E03B1C9A
:1036A00012331B787A68D2183B1C17331B78391CED
:1036B0001731581C08702049CB5C13703B1C123327
:1036C0001B787A68D31819783B1C13333A1C1332D1
:1036D00012788A181A703B1C12331A783B1C12336A
:1036E00001321A703A1C12323B1C103312781B78CC
:1036F0009A42D4D33B1C17331B783A1C1732591CFF
:1037000011701A1C3B1C0E330B498A5C1A703A1C50
:1037100013323B1C0E3312781B78D318DBB2002B0C
:1037200001D0FD2302E03B1C10331B785BB2181C58
:10373000BD4607B090BDC0460001002094FEFF1FAB
:103740002403002080B500AF084B1B68002B0AD073
:10375000064B1B685A1E054B1A60044B1B68002B56
:1037600000D000E062B6BD4680BDC046900100209A
:1037700080B500AF72B6034B1B685A1C014B1A6030
:10378000BD4680BD9001002080B582B000AF78605A
:103790000A1CFB1C1A707B680F481A18FB1C1B784C
:1037A0005B09DBB20D495B189B00D3181A1CFB1C8C
:1037B00019781F230B40DB05134380225205134366
:1037C000FA1C11781F220A400121081C9040021C9B
:1037D0001A60BD4602B080BD34100000FDFFFF3FFF
:1037E00080B582B000AF78607B68054A9B18054AB7
:1037F00013431B68DBB2181CBD4602B080BDC04637
:10380000441000000000181E80B582B000AF786040
:103810007B68054A9B18054A13431B68DBB2181CDA
:10382000BD4602B080BDC046441000000000101824
:1038300098B500AF094B181C00F038FB041C084B6E
:10384000181CFFF7CDFF031C0133201C191CFCF7CB
:1038500057FE031C181CBD4698BDC04600400640DC
:103860000070044098B500AF094B181C00F01EFB17
:10387000041C084B181CFFF7B3FF031C0133201C6A
:10388000191CFCF73DFE031C181CBD4698BDC04624
:10389000004006400070044098B500AFFFF7E2FF1B
:1038A000041C074B181CFFF7AFFF031C0133201C3F
:1038B000191CFCF725FE031C181CBD4698BDC0460C
:1038C0000070044080B584B000AF78607B68002B46
:1038D00002D0012B05D009E0FFF7DEFF031CFB60DF
:1038E00007E0FFF7BFFF031CFB6002E00023FB6063
:1038F000C046FB68181CBD4604B080BD80B582B0D0
:1039000000AF78607B68012B05D9094809490A4A4C
:103910000A4B02F011F90A4A7B68D3181B78094A4E
:10392000101C191CFFF730FFBD4602B080BDC04619
:10393000806D00004F020000C07300007C6E00002C
:10394000BC7300000070044080B500AF074B1A68DC
:103950000423134004D1FFF76BFF031C1B0902E093
:10396000FFF766FF031C181CBD4680BD10E000E099
:1039700080B582B000AF78600A1CFB1C1A707B68AF
:10398000002B06D10C490D4A0D4B081C762102F084
:10399000D3F87B68FA1C12785A707B6800221A7080
:1039A0007B6800225A607B6800229A600023181C02
:1039B000BD4602B080BDC046286F0000DC73000029
:1039C000586F000090B585B000AF786039607B68B3
:1039D000002B06D12A492B4A2B4B081C932102F0BD
:1039E000ABF87B685B78DBB2002B0FD0FFF7C0FE33
:1039F0007B685B78DBB2013BDAB27B685A707B682C
:103A000000221A70FFF79EFE002335E03B68002B72
:103A100001D1022330E07B681B78DBB2002B18D089
:103A200001F0D6FF031CFB607B689C687B685A68CA
:103A3000FB68101C191C01F0B3FF031C9C421AD236
:103A4000FFF796FE7B6800221A70FFF77BFE0223C9
:103A500012E03B6801330ED0FFF78AFE7B6801223B
:103A60001A70FFF76FFE01F0B3FF021C7B685A600B
:103A70007B683A689A600323181CBD4605B090BD68
:103A8000286F0000EC730000586F000080B582B012
:103A900000AF78607B68002B06D10F490F4A104BAE
:103AA000081CCC2102F048F87B685B78DBB2FF2B66
:103AB00001D101230BE0FFF75BFE7B685B78DBB293
:103AC0000133DAB27B685A70FFF73CFE0023181C02
:103AD000BD4602B080BDC046286F0000FC730000E8
:103AE000586F000080B582B000AF78600A1CFB1CE4
:103AF0001A707B68002B06D10D48B32359000D4A7C
:103B00000D4B02F019F87B6800221A707B680022C6
:103B1000DA607B68FA1C12781A747B6800225A609B
:103B20007B6800229A600023181CBD4602B080BD4D
:103B3000286F00000C740000686F000080B582B030
:103B400000AF786039607B68002B07D10B48D82321
:103B5000191CFF310A4A0B4B01F0EEFFFFF708FE7C
:103B60007B68DA683B681A437B68DA60FFF7EAFD36
:103B70000023181CBD4602B080BDC046286F00005F
:103B80001C740000686F000080B582B000AF042391
:103B90007B60124A7B681B01D318083300221A602D
:103BA0000AE07B6801331A010C4BD2180B497B6881
:103BB0001B01CB1808331A607B685A1E7A60002BF1
:103BC000EFD1074B054A1A60064B064A9A60054B2F
:103BD000044ADA60BD4602B080BDC04694010020B0
:103BE000E4010020E801002080B584B000AF7860D7
:103BF00001F0EEFE031CFB6001F0EAFE031CBB605B
:103C0000FA68BB68101C191C01F0CAFE021C7B6814
:103C10009A42F1D9BD4604B080BDC04680B500AF20
:103C2000FFF7B2FF01F06CFE0023181CBD4680BDFB
:103C300080B582B000AF78607B680633034A1343D7
:103C40001B78DBB2181CBD4602B080BD0000081115
:103C500080B582B000AF7860024B1B68181CBD466F
:103C600002B080BD4C03002080B584B000AFF86086
:103C7000B960111C1A1CFB1D1970BB1D1A70FB1DAD
:103C80001B78BA68111CD9400B1CBB60BB1D1B788C
:103C9000002B21D0FB1D1B78062B0AD002DC002B49
:103CA00017DB02E0072B0CD013E0BB685B09BB609D
:103CB00012E0BB68181C1421FCF722FC031CBB603B
:103CC0000AE0BB68181C0C21FCF71AFC031CBB6043
:103CD00002E00023BB60C046BB68181CBD4604B0B0
:103CE00080BDC04690B587B002AF78607B688822FF
:103CF000520513431B78DBB2002B2BD17B68181CB9
:103D0000FFF7A6FF031CFB607B68164A13431A1CCF
:103D10003B1C0B3312781A707B680133124A134331
:103D20001A1C3B1C0A3312781A703B1C0933002200
:103D30001A707868F9683B1C0B331A783B1C0A33FD
:103D40001B783C1C093424780094FFF78DFF031C7A
:103D5000FB6002E0054B1B68FB60FB68181CBD465E
:103D600005B090BD0000901100000812A0FEFF1FDA
:103D700080B584B000AFF860B960111C1A1CFB1D3F
:103D80001970BB1D1A70FB1D1B78002B06D0BA687A
:103D900080231B029A420BD9002314E0BA680C4B13
:103DA0009A4203D9BA680B4B9A4201D900230AE020
:103DB000BB1D1978FB1D1A78074B49008A18520061
:103DC000D35ABA685343181CBD4604B080BDC046E0
:103DD000117A0000979800002C74000080B584B020
:103DE00000AF78607B68181CFFF77CFF031CFB604A
:103DF000FB68002B01D100231FE07B6803339C226A
:103E0000520513431A1C3B1C0B3312781A707B6843
:103E100003330C4A13431A1C3B1C0A3312781A70E2
:103E20007868F9683B1C0B331A783B1C0A331B7803
:103E3000FFF79EFF031CFB60FB68181CBD4604B027
:103E400080BDC0460000881280B584B000AF7860A5
:103E50007B688422520513431B78DBB2002B01D10F
:103E6000002319E07B6801338022520513431B783D
:103E7000DBB2002B03D10A4B1B68FB600BE0094B44
:103E80001A687B68083308490B431B78DBB2111CA6
:103E9000D9400B1CFB60FB68181CBD4604B080BDFC
:103EA000A0FEFF1F9CFEFF1F0000901090B585B084
:103EB00000AF78603C1C0B347B68181CFFF7B8FE21
:103EC000031C23703B1C0B331B78012B0AD0022BE5
:103ED0000FD0002B14D17B68181CFFF77FFF031C49
:103EE000FB6010E07B68181CFFF7AEFF031CFB6053
:103EF00009E07B68181CFFF7ABFE031CFB6002E0C7
:103F00000023FB60C046FB68181CBD4605B090BD91
:103F100080B582B000AF78600A1CFB1C1A707B6809
:103F2000DB78DBB21A1CFB1C1B78111C19410B1C23
:103F30001A1C012313405A1E9341DBB2181CBD46C4
:103F400002B080BD80B582B000AF78607B6800228F
:103F50001A707B6800225A707B6800229A707B6816
:103F60000022DA707B6800225A717B6800229A7105
:103F70007B680022DA71BD4602B080BD80B58EB08C
:103F800000AFF860B9607A603B607B68FA2292000B
:103F900053433B6201235B42FB620023BB6200236D
:103FA0007B6200237B633BE07B6B0122111C994009
:103FB0000B1CFB6100233B632CE0274A3B6B9B00FF
:103FC000D3185B88FA695343B868191CFCF798FA50
:103FD000031CBB613A6ABB699A4203D93A6ABB695E
:103FE000D31A02E0BA693B6AD31A7B617A69FB6A29
:103FF0009A420CD27B6BBB62174B3A6B9200D35C3C
:104000007B627B69FB627B69002B00D105E03B6B27
:1040100001333B633B6B312BCFD97B6B01337B632C
:104020007B6B022B02D8FB6A002BBDD13B68002BB7
:1040300002D03B68FA6A1A60BB6ADBB29B01DAB253
:104040007B6AD9B23F230B40DBB21343DAB2FB6881
:104050005A70BD460EB080BD3C74000080B584B07F
:1040600000AF78607B6802339422520513431B78BB
:10407000DBB2002B2BD00023FB607B680133194A95
:1040800013431B78DBB2002B0CD07B680133154A3D
:1040900013431B78DBB2FB607B680133114A134387
:1040A00000221A707B6802338822520513430422CF
:1040B0001A70FB68002B09D07B680133094A13434F
:1040C000FA68D2B29201D2B21A7007E006E07B68B9
:1040D000023380221205134330221A70BD4604B009
:1040E00080BDC0460000081380B584B000AF786082
:1040F0007B6802339422520513431B78DBB2012BF9
:1041000006D01449144A154B081CFF2101F014FD78
:104110000023FB607B6802338022D2041343CF224A
:104120001A700AE0FB680133FB60FA688023DB0049
:104130009A4201D1092309E0C0467B68181C052179
:10414000FFF7E6FE031C002BECD10023181CBD4634
:1041500004B080BD8C6F000004750000B86F0000D3
:1041600080B582B000AF78600A1CFB1C1A70FB1C83
:104170001B78DB18DAB27B681A707B6805339822EB
:104180005205134300221A70BD4602B080BDC046DE
:1041900080B584B000AFF860B960FB1D1A70BB68D1
:1041A0001F2B06D91249134A134B081C2E2101F06C
:1041B000C3FCFB1D1B78012B0BD1FB681433802241
:1041C00012051343BA680121081C9040021C1A60B2
:1041D0000BE0FB6814338022D2041343BA68012138
:1041E000081C9040021CD2431A60BD4604B080BD3A
:1041F000D46F0000187500000070000080B582B018
:1042000000AF021CFB1D1A70064BFA1D1278111C20
:104210001F220A400121081C9040021C1A60BD4662
:1042200002B080BD00E100E080B582B000AF7860F0
:104230007B6802339C225205134380221A70BD46CC
:1042400002B080BD80B582B000AF78607B68023379
:104250008C225205134300221A70BD4602B080BD65
:1042600080B582B000AF78607B6802338C22520543
:10427000134308221A70BD4602B080BD80B582B0DB
:1042800000AF78600A1CFB1C1A707B680233902216
:1042900052051343FA1C12781201D2B21A70BD46AD
:1042A00002B080BD80B582B000AF78607B68023319
:1042B0009022520513431B78DBB2181CBD4602B096
:1042C00080BDC04680B582B000AF78607B681B7946
:1042D000DBB2181CBD4602B080BDC04680B582B0BE
:1042E00000AF78600A1CFB1C1A707B68FA1C1278FD
:1042F0001A71BD4602B080BD80B582B000AF786053
:104300000A1CFB1C1A707B68DB78DBB21A1CFB1CD6
:104310001B78111C19410B1C1A1C012313405A1E37
:104320009341DBB2181CBD4602B080BD80B582B09F
:1043300000AF78607B6802339422520513431B78E8
:10434000DBB25A1E9341DBB2181CBD4602B080BDE1
:1043500080B582B000AF78600A1CFB1C1A707B68C5
:104360000233982252051343FA1C12789201D2B2FA
:104370001A70BD4602B080BD80B582B000AF7860D3
:104380007B680222DA70BD4602B080BD80B582B083
:1043900000AF021CFB1D1A70FB1D1B787F2B06D97A
:1043A0000D490E4A0E4B081C5D2101F0C5FBFB1D9B
:1043B0001B785BB21F2B06DD0749084A094B081C16
:1043C0005E2101F0B9FBFB1D1B785BB2181CFFF7E7
:1043D00015FFBD4602B080BD0C7000004C7500009A
:1043E000687000007870000080B584B000AF78601D
:1043F00039603B68002B06D12549264A264B081C0C
:10440000592101F099FB7B68012B06D92049214AEB
:10441000224B081C5A2101F08FFB214B7A68920035
:10442000D358FB601F4B7A689200D358002B01D001
:10443000012328E03B68181C0021242201F000FC25
:104440003B681833181C0021FFF792FA7B68181C90
:10445000FFF754FAFB68181CFFF774FD114B7A68DC
:1044600092003968D150104A7B68D3181B785BB230
:10447000181CFFF78BFF3B6801225A74FB68181C5D
:10448000FFF7D2FE0023181CBD4604B080BDC04615
:10449000A470000038750000DC700000E4700000BB
:1044A0002C750000F80100203475000080B586B03E
:1044B00000AF786039603B68002B06D11B491C4A6D
:1044C0001C4B081CAF2101F037FB7B68012B06D980
:1044D0001649174A184B081CB02101F02DFB174B49
:1044E0007A689200D3587B61154B7A689200D35852
:1044F0003B613B685A683B695B699A4213D07B68B1
:10450000181CFFF7DFF9031CFB603B685B687969E7
:10451000FA68081C111C1A1C0023FFF72FFD3B68CA
:104520005A683B695A61BD4606B080BDA470000060
:104530006075000004710000E47000002C7500003C
:10454000F801002090B589B004AFF860B9607A60D6
:104550003B60F868B9687A683B683C6A00947C6A9A
:104560000194002402940024039400F055FA031CE3
:10457000181CBD4605B090BD90B589B004AFF86079
:10458000B9607A603B60F868B9687A683B683C6AF1
:1045900000947C6A0194002402940024039400F0A7
:1045A000FDFA031C181CBD4605B090BD90B587B040
:1045B00000AF78607B68012B06D94448B3235900CB
:1045C000434A444B01F0B8FA434B7A689200D358FF
:1045D0007B617B69181CFFF7CFFE404B7A68920025
:1045E000D3583B613C1C0F347B69181CFFF75AFE03
:1045F000031C23707B69181C0521FFF77DFE031C3B
:1046000001225340DBB2002B09D17B69181CFFF754
:104610008DFE031C01225340DBB2002B00D052E080
:104620003B1C0F331B78012B29D17B69181C0021FF
:10463000FFF762FE031C002B07D03B6905221A74AA
:104640007B68181C00F08AF83DE03B69DB68013BA1
:104650003A69D360002B0DD03B699B685A1C3B69BB
:104660009A603B699B681B787A69101C191CFFF7DC
:1046700035FE28E07B68181C00F070F823E03B69E9
:104680005B68013B3A695360002B02D0012B05D0D7
:1046900009E07B68181C00F061F809E07B69181CD0
:1046A000FFF7DEFD04E07B69181CFFF7CBFDC04679
:1046B0003B691C68621C3B691A607B69181CFFF728
:1046C00001FE031C2370BD4607B090BDA47000001E
:1046D0007C750000E47000002C750000F8010020DB
:1046E00090B585B000AF786039607B68012B07D941
:1046F0001648B823191CFF31154A164B01F01CFA55
:10470000154B7A689200D358FB60FB681A1C18326C
:104710003C1C0B343B68101C191CFFF753F9031C9D
:1047200023703B1C0B331B78032BEED03B1C0B334D
:104730001B78002B02D0FB6804221A74FB681B7CD8
:10474000DBB2181CBD4605B090BDC046A470000089
:1047500098750000E4700000F801002080B584B076
:1047600000AF78607B68012B06D91D48EA23590009
:104770001C4A1D4B01F0E0F91C4B7A689200D3589B
:10478000FB601B4B7A689200D358BB60BB68DB7C34
:1047900001225340DBB2002B09D1BB681B7CDBB28A
:1047A000052B04D0BB681B7CDBB2042B0BD1FB6850
:1047B000181C0021FFF7CCFDFB68181CFFF794FCC8
:1047C000BB6801225A74BB689B7C002B04D0BB6879
:1047D0001833181CFFF75AF9BD4604B080BDC04617
:1047E000A4700000AC750000E47000002C7500009F
:1047F000F801002080B58AB000AFF860B9607A6037
:104800003B60FB68012B06D97E48FE2359007E4A97
:104810007E4B01F091F97E4BFA689200D3583B62CF
:104820007C4BFA689200D358FB613B1C1433002286
:104830001A803B1C253300221A703B1C1B33FA697B
:10484000927C1A70FB690122DA74FB6901229A7466
:104850003B1C30331B78002B01D1012300E00023E7
:104860003A1C1A321370BB681B889B0A9AB23B1C15
:1048700019331E3A51424A411A703B1C19331B78B6
:10488000002B0CD0BB681B881B0A9AB23B1C273339
:104890001A70BB681A883B1C26331A7004E0BB6888
:1048A0001A883B1C27331A703A1C27323B1C2733CB
:1048B0001B78DB1813703B1C19331B780122534003
:1048C000DBB2002B06D07B68002B03D13B1C1A33D4
:1048D0001B7800E000233A1C273211781A1C0B1CAD
:1048E0001343DAB23B1C27331A703B1C25331B7869
:1048F0003A1C2532591C11703A1C1432391C2731CC
:104900000978D1543B1C19331B78002B0CD03B1C6D
:1049100025331B783A1C2532591C11703A1C14326D
:10492000391C26310978D154FB693A1C14329A603B
:104930003B1C25331A78FB69DA603B1C14331B7867
:104940003A6A101C191CFFF7C9FCFA687B6B101C33
:10495000191CFFF7C5FEFB691B7CDBB2002B15D1D0
:104960007B68002B12D0FB697A689A60FB693A6811
:10497000DA607B681B783A6A101C191CFFF7AEFCE2
:10498000FA687B6B101C191CFFF7AAFEFB691B7CE5
:10499000DBB2002B27D13B1C30331B78002B22D1FC
:1049A0003B1C19331B78002B02D17B68002B1AD0DB
:1049B000FB690122DA60FB6900229A603B6A181CDD
:1049C000FFF74CFB3B1C27331B7801221343DBB260
:1049D0003A6A101C191CFFF781FCFA687B6B101CEB
:1049E000191CFFF77DFEFB690022DA74FB693A1C93
:1049F0001B3212789A74FB691B7CDBB2181CBD4613
:104A00000AB080BDA4700000C8750000E47000000A
:104A10002C750000F801002090B589B002AFF86055
:104A2000B9607A603B60FB68012B05D95348544953
:104A3000544A554B01F080F8BB6A002B05D14F4812
:104A40005249504A524B01F077F8524BFA689200A3
:104A5000D3587B61504BFA689200D3583B613B6955
:104A60005B7CDBB201225340DBB2002B04D03B69FC
:104A700003221A7403237DE03B1C34331B7801228C
:104A80005340DBB2002B01D01E233B633B69002265
:104A90009A603B690022DA603B6900221A603B6938
:104AA00000221A603B6900221A743B6900225A7482
:104AB0003B693A1C343212789A74FA68BB68101C4D
:104AC000191CFFF7F3FC7B69181C0121FFF7D6FBCB
:104AD0007B69181CFFF750FC7B69181C0121FFF74C
:104AE00037FC7B69181CFFF7B9FAF868B9687A686F
:104AF0003B68012400943C6B0194FFF77BFE3B690B
:104B00001B7CDBB2002B19D13B69BA6A9A603B6906
:104B1000FA6ADA603B699B681B787A69101C191C79
:104B2000FFF7DCFB3B1C34331B78002B1FD0FA68EB
:104B30003B6B101C191CFFF7D3FD18E03B691B7C75
:104B4000DBB2042B13D17B69181C0021FFF700FC9A
:104B50007B69181C0521FFF7CFFB031C002B03D03A
:104B60007B69181CFFF7C0FA3B6901225A743B6944
:104B70001B7CDBB2181CBD4607B090BDA4700000C2
:104B800072020000DC750000E47000007302000097
:104B90000C7100002C750000F801002090B589B060
:104BA00002AFF860B9607A603B60FB68012B05D901
:104BB00057485849584A594B00F0BEFFBB6A002B72
:104BC00005D153485649544A564B00F0B5FF564B51
:104BD000FA689200D3587B61544BFA689200D3581C
:104BE0003B613B695B7CDBB201225340DBB2002BB3
:104BF00004D03B6903221A74032384E03B1C343342
:104C00001B7801225340DBB2002B01D01E233B63F3
:104C10003B69BA6A1A603B69FA6A5A603B690022CA
:104C20009A603B690022DA603B6900221A743B6992
:104C300000225A743B693A1C343212789A74FA682A
:104C4000BB68101C191CFFF731FC7B69181C012183
:104C5000FFF714FB7B69181CFFF78EFB7B69181CA0
:104C60000121FFF775FB7B69181CFFF7F7F9F8685E
:104C7000B9687A683B68002400943C6B0194FFF7A4
:104C8000B9FD3B691B7CDBB2002B20D17B69181C72
:104C90000021FFF7F3FAFB6A012B04D17B69181C92
:104CA000FFF7DEFA03E07B69181CFFF7CBFA7B699C
:104CB000181CFFF707FB3B1C34331B78002B1FD05D
:104CC000FA683B6B101C191CFFF70AFD18E03B69E2
:104CD0001B7CDBB2042B13D17B69181C0021FFF76E
:104CE00037FB7B69181C0521FFF706FB031C002B13
:104CF00003D07B69181CFFF7F7F93B6901225A744E
:104D00003B691B7CDBB2181CBD4607B090BDC0469A
:104D1000A4700000CE020000F0750000E4700000F6
:104D2000CF020000147100002C750000F801002073
:104D300080B582B000AF78607B6802339422520560
:104D400013431B78DBB25A1E9341DBB2181CBD46DD
:104D500002B080BD80B584B000AF78607B68012B65
:104D600006D90F490F4A104B081C442100F0E4FEFD
:104D70000E4B7A689200D358FB60FB68181CFFF753
:104D8000D7FF031C002B04D07B68181CFFF70EFC18
:104D900003E07B68181C00F0D7F9BD4604B080BD65
:104DA0001C71000008760000587100002C7500008E
:104DB00080B582B000AF021CFB1D1A70064BFA1DB5
:104DC0001278111C1F220A400121081C9040021C6D
:104DD0001A60BD4602B080BD00E100E080B582B03F
:104DE00000AF78607B6802339C2252051343802217
:104DF0001A70BD4602B080BD80B582B000AF786049
:104E00000A1CFB1C1A707B68023390225205134364
:104E1000FA1C12781201D2B21A70BD4602B080BDDF
:104E200080B582B000AF78607B6802339022520573
:104E300013431B78DBB2181CBD4602B080BDC046D0
:104E400080B582B000AF78607B681B79DBB2181C3C
:104E5000BD4602B080BDC04680B582B000AF78606C
:104E60000A1CFB1C1A707B68FA1C12781A71BD466A
:104E700002B080BD80B582B000AF78600A1CFB1C18
:104E80001A707B68DB78DBB21A1CFB1C1B78111CC8
:104E900019410B1C1A1C012313405A1E9341DBB20B
:104EA000181CBD4602B080BD80B582B000AF7860EE
:104EB0007B681022DA70BD4602B080BD80B582B03A
:104EC00000AF78600A1CFB1C1A707B6802339822C2
:104ED00052051343FA1C12789201D2B21A70BD46E1
:104EE00002B080BD80B582B000AF78607B680222DE
:104EF000DA70BD4602B080BD80B582B000AF786088
:104F00007B6806339822520513431B78DBB25A1E86
:104F10009341DBB2181CBD4602B080BD80B582B0A3
:104F200000AF78607B680633982252051343402215
:104F30001A70BD4602B080BD80B582B000AF786007
:104F40000A1CFB1C1A707B6806339422520513431B
:104F5000FA1C12785201D2B21A70BD4602B080BD5E
:104F600080B582B000AF78607B680633942252052A
:104F700013431B78DBB25A1E9341DBB2181CBD46AB
:104F800002B080BD80B582B000AF78607B68063328
:104F90009022520513431B78DBB25A1E9341DBB2B9
:104FA000181CBD4602B080BD80B582B000AF7860ED
:104FB0007B68063390225205134310221A70BD46B7
:104FC00002B080BD80B582B000AF021CFB1D1A701C
:104FD000FB1D1B787F2B06D90D490E4A0E4B081C72
:104FE0005D2100F0A9FDFB1D1B785BB21F2B06DDC8
:104FF0000749084A094B081C5E2100F09DFDFB1D76
:105000001B785BB2181CFFF7D3FEBD4602B080BD13
:105010007871000030760000D4710000E471000067
:1050200080B586B000AFF860B9607A607B68002B0D
:1050300006D13749374A384B081C392100F07CFD2E
:10504000FB68012B06D93249324A344B081C3A21FD
:1050500000F072FD324BFA689200D3587B61314BFD
:10506000FA689200D358002B01D001234BE07B68F3
:10507000181C0021382200F0E3FDBB6899787A689B
:105080002C23D154BB685A687B681A63BB689A6842
:105090007B685A63FB68181CFEF730FC7B69181CA0
:1050A000FEF750FFBB681B88DBB27A69101C191C25
:1050B000FFF756F81B4BFA6892007968D1507B686D
:1050C0001833181C0021FEF70DFDBB681B7B002B5D
:1050D00004D07B69181C0121FFF72EFF7A682C236E
:1050E000D35C7A69101C191CFFF7E8FE0E4AFB68B6
:1050F000D3181B785BB2181CFFF764FF7B69181C80
:10510000FFF76CFE0023181CBD4606B080BDC046EC
:10511000107200001C7600004872000050720000FF
:105120002C750000F80100203475000080B582B0B5
:1051300000AF7860034B7A689200D358181CBD46C4
:1051400002B080BDF801002090B589B000AF786052
:105150007B68012B05D9B348B349B44AB44B00F07E
:10516000EBFCB44B7A689200D358BB613B1C1733FD
:1051700000221A703B1C1F3300221A703C1C16348C
:10518000BB69181C0421FFF775FE031C23703C1C2F
:105190001534BB69181C0621FFF76CFE031C237035
:1051A0003B1C143300221A703C1C1334BB69181CBE
:1051B000FFF7E8FE031C23703C1C1234BB69181C6B
:1051C000FFF7CEFE031C23703C1C1134BB69181C76
:1051D000FFF792FE031C23703B1C14333A1C12325F
:1051E00012781A70944B7A689200D358FB603C1C7A
:1051F0000B34BB69181CFFF713FE031C23703B1C08
:1052000012331B78002B1CD03B1C13331B78002B54
:1052100017D0BB69181CFFF7C7FEBB69181CFFF746
:1052200061FEFB681B6B002B0AD0FB681C6B7B6864
:10523000DAB2FB685B6B101C01211A1CA04791E1DC
:1052400090E13B1C14331B78002B35D03B1C1133F1
:105250001B78002B30D0BB69181CFFF75FFEBB69C1
:10526000181CFFF73FFEFA682C23D35C0122534041
:10527000DBB2002B04D0BB69181C0021FFF71EFE17
:10528000FB681B6B002B09D0FB681C6B7B68DAB2D8
:10529000FB685B6B101C80211A1CA047FB68DB7D40
:1052A000002B05D0FB681833181C8021FEF746FC44
:1052B000FB680A221A7055E1BB69181CFFF712FE41
:1052C0003B1C16331B78002B1DD0BB69181CFFF745
:1052D000EBFD3B1C15331B7801225340DBB2002B46
:1052E00011D0FB6808221A70FA682C23D35C0122C3
:1052F0005340DBB2002B05D0BB69181C0021FFF71F
:10530000DDFD2FE12EE13B1C15331B78002B37D040
:10531000BB69181C0221FFF7ADFD031C002B17D041
:10532000BB69181C0121FFF767FDFB681B6B002B95
:1053300009D0FB681C6B7B68DAB2FB685B6B101CE6
:1053400002211A1CA0473B1C1F3301221A70CCE01B
:10535000BB69181C0021FFF74FFDFB681B6B002B7E
:1053600009D0FB681C6B7B68DAB2FB685B6B101CB6
:1053700004211A1CA047BB69181CFFF761FDB4E0AB
:105380003B1C0B331B78012B58D1BB69181C002127
:10539000FFF770FD031C002B3FD0BB69181C0021D8
:1053A000FFF72AFDBB69181CFFF74AFDFA682C239A
:1053B000D35C01225340DBB2002B0CD03B1C1433D6
:1053C0001B7801225340DBB2002B04D0BB69181CB0
:1053D0000021FFF773FDFB681B6B002B09D0FB68F6
:1053E0001C6B7B68DAB2FB685B6B101C08211A1C13
:1053F000A047FB689B7D002B05D0FB681833181C69
:105400000821FEF79BFBFB6800225A60FB68002224
:10541000DA60FB6800221A7567E03B1C1F3301222B
:105420001A7062E0107200002E0200004476000044
:10543000507200002C750000F80100203C1C17344D
:10544000BB69181CFFF7FCFC031C2370FB689B68FE
:10545000002B47D0FB681B693A1C173212781A7070
:10546000FB681B695A1CFB681A61FB689B685A1E23
:10547000FB689A60FB689B68002B36D13B1C143399
:105480001B7801225340DBB2002B16D0FA682C2384
:10549000D35C01225340DBB2002B04D0BB69181C43
:1054A0000021FFF70BFDFB68DB7D002B05D0FB68BF
:1054B0001833181C2021FEF741FBFB6800225A75A7
:1054C000FB6800221A61FB681B6B002B0DD0FB6888
:1054D0001C6B7B68DAB2FB685B6B101C20211A1C0A
:1054E000A04702E0FB6807221A703B1C1F331B78A1
:1054F000002B37D0FB685B68002B30D0FB68DA6884
:105500003B1C173312781A70BA693B1C17331B788F
:10551000101C191CFFF7A0FCFB68DB685A1CFB6819
:10552000DA60FB685B685A1EFB685A60FB685B6860
:10553000002B17D1FB680022DA60FB6800221A7585
:10554000FB681B6B002B0DD0FB681C6B7B68DAB211
:10555000FB685B6B101C10211A1CA04702E0FB6863
:1055600006221A70BD4609B090BDC04680B500AF96
:105570002F4A88235B010021D1502E4B1B78DBB2D0
:105580001A1C012313400ED02B4B9B78DBB21A1C44
:105590000823134007D0284B274A9278D2B208211B
:1055A0000A43D2B29A70254B00221A70204A244B2B
:1055B0000021D1501E4A1E49224BCB588021890020
:1055C0001943204BD150204B1F4AD1681F4A0A4033
:1055D000DA601F4B00221A721D4B06221A70C04659
:1055E0001B4B9B79DBB21A1C10231340F8D0184BCD
:1055F000174A5278D2B240218A43D2B25A70144B21
:10560000134AD278D1B21F220A40D2B2DA70114BBB
:1056100080221A700E4B00225A71C0460C4B9B79A7
:10562000DBB21A1C0C231340F8D1BD4680BDC04626
:105630000070044000F0074000D0074000E0074041
:10564000441000003810000000900440FFF8FFFEF6
:10565000004006400050064080B588B000AF274BA0
:10566000FB60274A274B9A4216D00023FB610AE0D1
:10567000244BFA699200D158214BFA699200D1501B
:10568000FB690133FB61FB689A08FB699A42EFD81A
:105690001D4B1B4A9A6002E01B4B1A4A9A601B4B37
:1056A000BB611B4B7B611B4BBB60BA687B69D31A28
:1056B000FB6107E0BB695A1CBA617A69511C7961C8
:1056C00012781A70FB695A1EFA61002BF2D1124B44
:1056D0003B61124B7B607A683B69D31AFB6104E043
:1056E0003B695A1C3A6100221A70FB695A1EFA6122
:1056F000002BF5D1BD4608B080BDC04600020000B9
:1057000000FCFF1F0000000000ED00E000FEFF1F96
:10571000807700008C7800000CFFFF1F58030020EA
:1057200080B500AFBD4680BD80B582B000AF786067
:105730000A1CFB1C1A707B680F481A18FB1C1B788C
:105740005B09DBB20D495B189B00D3181A1CFB1CCC
:1057500019781F230B40DB051343802252051343A6
:10576000FA1C11781F220A400121081C9040021CDB
:105770001A60BD4602B080BD34100000FDFFFF3F3F
:1057800080B500AF104B181C8921FFF7CDFF0E4BE1
:10579000181C8A21FFF7C8FF0C4B00221A6000205A
:1057A00000F046F9002000F059F9012000F056F908
:1057B000002000F085F9012000F082F9002000F0BF
:1057C000ABF9BD4680BDC046007004404C030020CC
:1057D000B0B582B000AF021C3960FB1D1A70FB1D12
:1057E0001B787F2B32D93049FB1D1B781A1C0F23E5
:1057F0001340083B98082C4AFB1D1B781C1C0F23E8
:105800002340083B9B0806339B00D3185B68FA1DB6
:105810001278141C03222240D200FF24251C95403C
:105820002A1CD2431A403B689C01FF231C40FB1DED
:105830001B781D1C03232B40DB00251C9D402B1CCB
:105840001A43831D9B00CB185A6029E0174BFA1DA1
:10585000127852B292081549F81D007840B28008BB
:10586000C03080004158F81D0078041C03202040FF
:10587000C000FF24251C8540281CC043084039680F
:105880008C01FF210C40F91D09780D1C03212940D2
:10589000C900251C8D40291C0143C0329200D15003
:1058A000BD4602B0B0BDC04600ED00E000E100E042
:1058B00080B582B000AF021CFB1D1A70074B074A6F
:1058C00012680421101C8843011CFA1D12789200F2
:1058D0000A431A60BD4602B080BDC04610E000E039
:1058E00080B500AF044B1B889BB201339AB2024BC8
:1058F0001A80BD4680BDC0460002002000000000A6
:10590000B0B582B000AF224B00221A60204B0022BB
:105910009A600120FFF7CCFFFEF716F8031C1C1C51
:1059200000231D1C201C291C164B154AFAF758FE93
:10593000031C0C1C181C211C134A144BFAF730FED4
:10594000031C0C1C3B607C603B687A68134306D1E7
:105950001049114A114B081C682100F0EDF80C4B5E
:105960003A68013A5A6001235B42181C0121FFF793
:105970002FFF074B07221A60BD4602B0B0BDC046DC
:10598000E80300000000000040420F00000000009B
:1059900010E000E0807200005C7600009C72000065
:1059A00080B582B000AF786039603A687B689A420F
:1059B00003D33A687B68D31A05E03A687B68D31A48
:1059C000802252029B18181CBD4602B080BDC04602
:1059D00080B500AF024B1B889BB2181CBD4680BD32
:1059E0000002002080B584B000AFF860B960FB1DF4
:1059F0001A70BB681F2B06D909490A4A0A4B081CB2
:105A0000FF2100F099F8BB689B00FA68D318074A99
:105A10001343FA1D127812021A60BD4604B080BD0D
:105A2000AC7200006C760000FC72000000001014E4
:105A300080B582B000AF7860074B181C00210322AC
:105A4000FFF7D0FF044B181C02210322FFF7CAFF07
:105A5000BD4602B080BDC0460090044080B582B013
:105A600000AF78607B68002B02D0012B0DD01FE0C7
:105A7000114B181C06210122FFF7B4FF0E4B181C16
:105A800007210122FFF7AEFF12E00C4B181C012189
:105A90000122FFF7A7FF094B181C02210122FFF783
:105AA000A1FF064B181C05210122FFF79BFFC046F2
:105AB000BD4602B080BDC0460090044000A0044036
:105AC00080B582B000AF78607B68002B02D0012BDC
:105AD0000DD019E00E4B181C03210222FFF782FFA4
:105AE0000B4B181C04210222FFF77CFF0CE0094B32
:105AF000181C04210322FFF775FF064B181C032115
:105B00000322FFF76FFFC046BD4602B080BDC0460E
:105B100000A004400090044080B582B000AF7860DF
:105B2000044B181C01210322FFF75CFFBD4602B0A5
:105B300080BDC046009004407FB5061C094800683F
:105B4000C068002A02D0151C074C01E0074C251C38
:105B50001A1C0091331C06490194029500F020F8AC
:105B600000F0AEFC04FFFF1F80760000BB76000053
:105B70008D760000084B10B5041C002B02D00021CC
:105B800000E000BF054B1868836A002B00D09847DF
:105B9000201C00F0D3FFC04600000000C0760000CB
:105BA0000EB403B503AB04CB054A011C1068039A7D
:105BB000019300F029F902B008BC03B01847C046B1
:105BC00004FFFF1F70B50E4B0E4D0024ED1AAD10F3
:105BD0001E1CAC4204D0A300F35898470134F8E7E8
:105BE00001F0BAFD084B094D0024ED1AAD101E1C42
:105BF000AC4204D0A300F35898470134F8E770BDD5
:105C00007877000078770000787700007C770000D4
:105C100030B50023934208D0C55C0133CC18013C59
:105C20002478A542F6D0281B00E0002030BD10B536
:105C30000023934203D0CC5CC4540133F9E710BD78
:105C4000031C8218934202D019700133FAE770479F
:105C500030B5002940D004390B68002B00DAC91890
:105C60001E4A1368141C002B02D14B60116033E0F4
:105C700099420FD208680A189A4205D113685268EF
:105C8000C01808604A6000E04B60216024E08A424E
:105C900003D8131C5A68002AF9D11D685C198C427C
:105CA0000BD10968691858181960904214D114680A
:105CB0005268091919605A600EE08C4202D90C230F
:105CC000036009E008680C18944203D11468526814
:105CD000001908604A60596030BDC04608020020C3
:105CE00070B50323CD1C9D430835061C0C2D01D235
:105CF0000C2501E0002D3FDB8D423DD3204B1C687D
:105D00001A1C211C002913D00868431B0DD40B2B2F
:105D100002D90B60CC181EE08C4202D1636813607C
:105D20001AE0486860600C1C16E00C1C4968E9E742
:105D3000144C2068002803D1301C00F025F82060A6
:105D4000301C291C00F020F8431C15D0C41C032370
:105D50009C4384420AD12560201C0B300722231D5E
:105D60009043C31A0BD05A42E25008E0211A301C6B
:105D700000F00AF80130EED10C233360002070BD32
:105D8000080200200402002038B5074C0023051C3F
:105D9000081C236000F0B0FE431C03D12368002BD5
:105DA00000D02B6038BDC046540300200023C25CE5
:105DB0000133002AFBD1581E7047936810B5013B90
:105DC0009360002B05DA9469A34208DBCBB20A2B5F
:105DD00005D01368581C10601970C8B201E000F0BB
:105DE000A5FA10BDF8B5061C0F1C141CD518AC4242
:105DF00008D02178301C3A1CFFF7DFFF0134431C28
:105E0000F5D100E00020F8BDF0B59FB0061C0F1CD6
:105E100003920593002804D08169002901D100F084
